:020000040800F2
:100000009862002011030008251E00081D1E00082C
:10001000211E0008E71C00080B2600080000000055
:10002000000000000000000000000000790200084D
:10003000EB1C000800000000BD02000819210008A8
:100040002B0300082B0300082B0300082B030008D8
:100050002B0300082B0300082B0300082B030008C8
:100060002B0300082B0300082B0300082B030008B8
:100070002B0300082B0300082B0300082B030008A8
:100080002B0300082B0300082B0300082B03000898
:100090002B0300082B0300082B0300082B03000888
:1000A0002B0300082B0300082B0300082B03000878
:1000B0002B0300082B0300082B0300082B03000868
:1000C0002B0300082B0300082B0300082B03000858
:1000D0002B0300082B0300082B030008192300083A
:1000E0002B0300082B0300082B0300082B03000838
:1000F0002B0300082B0300082B0300082B03000828
:100100002B0300082B0300082B0300082B03000817
:100110002B0300082B0300082B030008892100088B
:100120002B0300082B0300082B0300082B030008F7
:1001300000F002F800F090F80AA090E8000C824469
:100140008344AAF10107DA4501D100F085F8AFF246
:10015000090EBAE80F0013F0010F18BFFB1A43F0A5
:10016000010318474460000064600000103A24BF97
:1001700078C878C1FAD8520724BF30C830C144BF0C
:1001800004680C607047000000230024002500264E
:10019000103A28BF78C1FBD8520728BF30C148BFEA
:1001A0000B6070476E2900F08783702900F0FF868E
:1001B000662905F08B87652905F08887672905F092
:1001C00085876129AFF3008003681B0A28BF41F0CF
:1001D0008001692900F01C81642900F019817529CA
:1001E00000F016816F2900F08D86782900F0CB860B
:1001F000E92900F02786E42900F02486F52900F09B
:100200002186EF2900F08A86F82900F0CA86036863
:10021000DB0928BF41F08001632900F0968573292E
:1002200000F09B85E32901F01B80F32901F0208079
:10023000002070471FB500F07FFF04000020002160
:1002400005F0E2FB401C60600020002105F0C6FBC9
:10025000E0601FBD10B510BD01F00EF91146FFF7AB
:10026000E9FF02F0A1FA01F03AF903B4FFF7F2FF57
:1002700003BC02F0E7F90000224B19680868B0E8F7
:10028000F00F80F30988BFF36F8F4FF0000080F309
:1002900011884EF00D0E70470000000006480068FF
:1002A000006880F3088862B661B6BFF34F8FBFF372
:1002B0006F8F00DF00BF00BF08ED00E0EFF30980A3
:1002C000BFF36F8F0F4B1A6820E9F00F106008B56D
:1002D0004FF0500080F31188BFF34F8FBFF36F8F43
:1002E00004F09EFC4FF0000080F31188BDE8084048
:1002F00019680868B0E8F00F80F30988BFF36F8FC2
:10030000704700BF70000020EFF3058070470000C9
:100310000948804709480047FEE7FEE7FEE7FEE799
:10032000FEE7FEE7FEE7FEE7FEE7FEE704480549D5
:10033000054A064B704700002921000831010008DA
:10034000985C002098620020985E0020985E002053
:10035000704700001CB50C46064B7B446946009074
:10036000204600F0D0FC04460020694600F0DEFC88
:1003700020461CBDCF0900000FB4044910B503AAE4
:10038000029800F0EFFC10BC5DF814FB2C0000207C
:100390000FB41CB5084B06AA7B446946009005982B
:1003A00000F0B1FC04460020694600F0BFFC204686
:1003B0001CBC5DF814FB00009109000070B50C46F0
:1003C0000546012A05D02878800600D5EA69002371
:1003D00002E0012305E05B1C934202D2E05C0028AE
:1003E000F9D1A869E618C01AA861286A18442862D9
:1003F000284600F0CFF904E0D5E9012114F8010BFB
:100400009047B442F8D3284600F0DAF970BD0000F6
:100410002DE9F0410646002410687529314616A5DD
:1004200010D000F0DEF9002802DA404213A507E000
:1004300031688A0701D512A502E0490704D511A544
:10044000012401E000F0D6F900210A2206F1240778
:1004500009E0B0FBF2FCB0FBF2F302FB1C00303011
:1004600078541846491C0028F3D123462A463046C2
:10047000BDE8F04100F0C7B9000000002D00000009
:100480002B000000200000002DE9F05F89460446A3
:100490004FF0000ADFF874B1FB44C0F820A02046FA
:1004A000E1688847002874D0252806D0D4E90121C6
:1004B0009047206A401C2062F1E700265F462046F4
:1004C000E16888472028054607DB312D05D27819D9
:1004D00010F8200C08B10643F1E7B00701D526F06B
:1004E0000406C4F81CA00027C4F818A02A2D09D0BF
:1004F000284602F0A0F838B304EB8708303DC8F86E
:10050000185019E059F8041B204604EB870291614A
:10051000E1688847012F054618D1E069002820DAF4
:1005200026F020061DE0D8F8180000EB800005EB4F
:1005300040003038C8F818002046E1688847054672
:1005400002F079F80028EED1012F0AD02E2D08D123
:100550002046E16888477F1C0546022F46F02006AA
:10056000C4DBA069002803DA404246F00106A0611E
:10057000F00701D026F010066C2D0BD0682D09D0A5
:100580004C2D39D06A2D35D0742D35D07A2D33D0FD
:1005900016E038E0E1682F4620468847B842054615
:1005A00009D16C2F26D04FF48060E16806432046C5
:1005B0008847054604E06C2F1AD04FF4807006433C
:1005C0000DB3A5F14100192802D8203546F4006684
:1005D0004A462946204626604E46FFF7E3FD80B195
:1005E00001280BD0F61D26F0070000F1080956E798
:1005F0004020E4E78020D8E70020D6E706F1040990
:100600004DE7284652E7206ABDE8F09F345C0000C1
:1006100070B5064600F0BAF80468054630460A226E
:10062000002100F0CFFC2C6070BD0000014A00F0FA
:1006300001BD0000E400002030B505460B462A4607
:1006400013F8014B12F8010B08B1A042F8D01CB10D
:10065000002802D06D1CF1E7284630BD10B5431CC0
:1006600002E010F8011B71B18107FAD14FF001329D
:1006700002C88C1A8C4314EAC211F9D0C01A0A06B7
:1006800003D0C01E10BDC01A10BD0A0401D0801EC8
:1006900010BD0902FCD0401E10BD032A40F230807C
:1006A00010F0030C00F0158011F8013BBCF1020FB3
:1006B000624498BF11F801CB00F8013B38BF11F834
:1006C000013BA2F1040298BF00F801CB38BF00F84B
:1006D000013B11F0030300F0CF84083AC0F008801A
:1006E00051F8043B083A51F804CBA0E80810F5E7AC
:1006F000121D5CBF51F8043B40F8043BAFF300808F
:10070000D20724BF11F8013B11F801CB48BF11F803
:10071000012B24BF00F8013B00F801CB48BF00F8D3
:10072000012B704702F0FF0343EA032242EA024230
:1007300000F0D6BC4FF0000200B513469446964632
:10074000203922BFA0E80C50A0E80C50B1F12001E4
:10075000BFF4F7AF090728BFA0E80C5048BF0CC092
:100760005DF804EB890028BF40F8042B08BF7047F0
:1007700048BF20F8022B11F0804F18BF00F8012B62
:1007800070477047704770477047000000487047D7
:10079000345C002070B5044685690068C10601D547
:1007A000302600E02026C00707D070BDD4E9012123
:1007B00030469047206A401C20626D1EF6D570BD01
:1007C00070B5044685690078C00707D170BDD4E9CB
:1007D000012120209047206A401C20626D1EF6D522
:1007E00070BD09684A0501D540B27047C905FCD5FE
:1007F00000B2704709684A0501D5C0B27047C90503
:10080000FCD580B270472DE9F0470D4699469246D7
:10081000044600F124080168880604D5E06921F047
:100820001001216000E00120A84201DD471B00E02B
:100830000027A1697A1902EB0900081AA061207843
:10084000C00602D42046FFF7A5FF002608E0D4E941
:1008500001211AF806009047206A401C761C20628D
:100860004E45F4DB2078C0060AD52046FFF792FFFC
:1008700006E0D4E9012130209047206A401C206224
:10088000381EA7F10107F4DC07E0D4E9012118F8CC
:1008900005009047206A401C2062281EA5F1010532
:1008A000F3DC2046FFF78CFF2078000602D50220FB
:1008B000BDE8F0870120FBE711680268006A530574
:1008C00001D508700AE0D30501D5088006E01306BB
:1008D00003D5C217C1E9000200E00860012070479B
:1008E00070472DE9FF4F0C461E464FF0FF378BB087
:1008F000D2E90001DDF860800A908A46C1F30A550A
:1009000005B93D46002108464FF00000BAF1000F3E
:1009100000F4400005DA00EB80004FF4400101EAEA
:1009200050004FEA9059B9F1010F00DDB9460A981D
:1009300050EA4A000ED044F61050A5F2FF35454368
:100940002F14B8F1000F1ED07542291E1EDDC9F10B
:1009500000021CE0B8F1010F4FF0000001D030217F
:1009600003E0F24305E02154401CB042FBDB30467B
:100970000022002121540B99C1F80880C1E9002010
:100980000FB0BDE8F08FBD1B6D1CDEE74A4600DAF4
:10099000694206A800F0C0FC06AB93E8070003AB71
:1009A00083E8070050460A9900F0E2FD8DE8070051
:1009B000A0F500501F3800900398002D09DD42F289
:1009C0001F014A46084403A90390684601F041F814
:1009D00008E0A0F500504A461F3803A90390684676
:1009E00001F04BF88DE807000004000C03D04FF035
:1009F000FF30410800E01046B8F1000F03D000229C
:100A0000009215461EE0751E05D400F099FB3032A9
:100A100062556D1EF9D5B3460122084302D000226B
:100A20007F1C04E02078302801D100227F1E002A9C
:100A3000099786D01DE0112D07DA00F081FB3032D6
:100A400062556D1C50EA0102F5D1084302D00098AE
:100A5000C8B10EE00021681E05E0235C625C6354AF
:100A60002254401E491C8142F7DBAB46A81B401EA6
:100A70000990002004F80B000B98099AC0F8088030
:100A8000C0E9002B7CE711264FF0000859E72DE95B
:100A9000F04F88460446D21D22F0070191B0D1E9FB
:100AA0000001CDE90A0101F0B2FD02460B98C00F2A
:100AB00001D02D2007E02068810701D52B2002E01E
:100AC000202101EAC000032A099001D0072A05DB92
:100AD00003464146204600F079FB0BE12078800672
:100AE00001D5E06900E00620B8F1650F814606D027
:100AF000B8F1660F18D0B8F1670F70D131E000205F
:100B0000B9F1110F009001DB112301E009F101039C
:100B10000AAA01A90CA8FFF7E4FEDDE90C70002683
:100B200009F10105834647E001204B4600904FF054
:100B300000470AAA01A90CA8FFF7D3FEDDE90DB012
:100B40000C995D46002610B909F101000D18B9EBAA
:100B5000050003D4C0F1FF3609F10105A5EB09003A
:100B60002BE0B9F1010F01DA4FF001090020B9F1D2
:100B7000110F0090484601DD112300E003460AAA48
:100B800001A90CA8FFF7ADFEDDE90C704D4600266B
:100B90008346207800070AD4AB4500DA5D4601A8F9
:100BA000012D04DD411911F8011C302907D04F45F2
:100BB00002DA17F1040F04DA012082460FE06D1EFD
:100BC000EEE7002F02DCED1B3E4403E0781CA84258
:100BD00000DD7D1CB81B00F1010A4FF000472078B2
:100BE000000703D4AA4501DB4FF0FF3A0021B7F11B
:100BF000004F0DF143088DF8431024D002202B2321
:100C0000002F01DA7F422D230A21021EA0F10100EC
:100C100000DC5FB197FBF1FC97FBF1F201FB1C7C60
:100C200017460CF1300C08F801CDEEE7A8F10100F1
:100C300003702188090501D5452100E06521A0F157
:100C4000010800F8011C09980FA9A1EB0807FF1D76
:100C500000B10120411901EBEA70A1693844081A7A
:100C6000401EA0612078C00602D42046FFF792FD06
:100C7000099828B1D4E901219047206A401C2062DC
:100C80002078C00622D52046FFF784FD1EE0002E06
:100C900004DBB34502DD01A8805D00E03020D4E92B
:100CA00001219047206A401C2062761CAAF10100B5
:100CB0005FEA000A0AD100F03FFAC0680168405CB0
:100CC000D4E901219047206A401C2062281EA5F12A
:100CD0000105DCDC07E0D4E9012118F8010B90479D
:100CE000206A401C2062381EA7F10107F3DC204671
:100CF000FFF766FD032011B043E6000001694A1CBE
:100D000002610878704700B58FB0CDE9013100214C
:100D1000059105497944CDE9031011466846FFF76E
:100D2000B3FB0FB000BD0000E5FFFFFF0A6802F84B
:100D3000010B0A60704710B5436913B1AFF300802F
:100D400001E0FFF73BFB012010BD127800F1240108
:100D50000A7000224A700122EDE711684FF0FF325D
:100D6000E9E70000074B70B50D467B44FFF7CBFF6A
:100D70000446284600F03EFB10B14FF0FF3070BD36
:100D8000204670BDBF1900002DE9FF5F15468A4659
:100D90000446DFF8AC80F8440027D8E900103E464E
:100DA000CDE9001010E03AF816106A4602A800F0EB
:100DB00025FB411C07D02178890603D5E269391843
:100DC00091420DD80744761C2078800602D5E06950
:100DD000B84205DDAE42E6DB3AF816000028E2D163
:100DE000A069C01BA0612046FFF7D4FCD8E9001021
:100DF000CDE90010002017E03AF818106A4602A862
:100E000000F0FCFAB0F1FF3F81460BD000250DF158
:100E1000080B05E0D4E901211BF8050090476D1C83
:100E20004D45F7D308F10100B0428046E4DB206A6B
:100E3000384420622046FFF7C3FCBDE8FF9F000056
:100E40004A5300002DE9F0418046D21D22F00702EE
:100E50000025D2E90002F52915A614D0011E72F171
:100E6000000106DA0023D0EB030063EB020211A6B7
:100E700008E0D8F800108B0701D50FA602E049075B
:100E800001D50EA601251146002408F1240704E02F
:100E900000F056F930323A55641C50EA0102F7D19D
:100EA0002B46324621464046BDE8F041FFF7ABBC39
:100EB000000000002D0000002B00000020000000BA
:100EC00030B4002100F1240408E002F00705D20844
:100ED000303542EA4372DB086554491C52EA030587
:100EE000F3D10468002310A2250708D504F02004DC
:100EF0000C4304D0C46901230CA2641EC46130BC3D
:100F0000FFF781BC10B5044621461068FFF772FC5C
:100F100002462046BDE810400023D1E7D21D22F052
:100F20000701D1E90023CBE70000000030000000FA
:100F3000F0B40D460188090502D5214C7C4402E03D
:100F40001F4C7C440E34002100F1240608E002F01E
:100F50000F071209E75D42EA03721B097754491C27
:100F600052EA0307F3D102780023120704D5702D4B
:100F700006D009B1022311342246F0BCFFF743BC6E
:100F800001231034F8E770B504460D462146106879
:100F9000FFF730FC024629462046BDE8704000239A
:100FA000C6E7D21D22F00703D3E90023C0E7036898
:100FB000126843F0200303600823C3610023B7E7EE
:100FC000AC5100002DE9F04791460F46804604469B
:100FD000002614F8015B2DB100F0A6F80068405D12
:100FE000C007F6D12B2D02D02D2D18D0641E4A46F5
:100FF0003946204600F040F927B13968A14201D1B5
:10100000C7F800804FF0020471050BD5404200285C
:1010100003DDFFF7BBFB0460A007BDE8F08746F4E3
:101020008066E4E70028F8DAFFF7B0FB04606FF0B1
:101030000040F2E72DE9F04115460E46040002D1CA
:101040002C6804B90BA4204600F008FA0444207868
:1010500070B127463146384600F0F0F90444207854
:1010600010B1002004F8010B38462C60BDE8F08177
:101070000027F9E70000000010B5203AC0F00B800F
:10108000B1E81850203AA0E81850B1E81850A0E88C
:101090001850BFF4F5AF5FEA027C24BFB1E81850E6
:1010A000A0E8185044BF18C918C0BDE810405FEA56
:1010B000827C24BF51F8043B40F8043B08BF7047D2
:1010C000D20728BF31F8023B48BF11F8012B28BFD7
:1010D00020F8023B48BF00F8012B70474FF0000298
:1010E0000429C0F0128010F0030C3FF425ABCCF1C2
:1010F000040CBCF1020F18BF00F8012BA8BF20F8A8
:10110000022BA1EB0C01FFF717BB5FEAC17C24BFE8
:1011100000F8012B00F8012B48BF00F8012B7047A5
:1011200000487047345C002010B500F005F8001D41
:1011300010BD00BFD548000000487047545C002037
:1011400030B5B0F10A024FEA900E71F100034EEA99
:10115000817EB0EB0E0061EB91014FEA101E4EEA6A
:10116000017E10EB0E0041EB11114FEA102E4EEAFA
:10117000016E10EB0E0041EB11214FEA104E4EEACA
:10118000014E10EB0E0041EB1141401841F10001FE
:101190004FEAD00040EA41704FEAD10110EB8005E0
:1011A0004FEA810444EA907444EB01046D1944EB66
:1011B0000404521BA3414FF0000348BF0A3200D57C
:1011C00030BD401C41F1000130BD00002DE9F0416F
:1011D0001F46044603260168072A01F4006004DB69
:1011E00008B116A505E016A503E008B115A500E0B5
:1011F00015A521F010002060A069C01EA0610FB1EC
:10120000401EA0612046FFF7C5FA4FB1D4E9012185
:1012100038469047206A401C2062C01C206206E0CD
:10122000206AFAE7D4E9012115F8010B9047761EF0
:10123000F8D22046FFF7C4FABDE8F0814E414E00D7
:101240006E616E00494E4600696E660010B54369D6
:1012500013B1AFF3008001E0FFF796FD012010BD50
:10126000128800F1240182840022C2840122EDE769
:1012700011684FF0FF32E9E72DE9F05F824615462D
:101280008B4600270AF10104B9460078302801D0C6
:101290009DB113E014F8010B0127782803D05828DA
:1012A00001D045B10AE00DB1102D07D1002714F887
:1012B000010B102502E0082500E00A250026B046B3
:1012C0000EE005FB080005FB06F101271FFA80F878
:1012D00001EB1046B6F5803F00D3B94614F8010B78
:1012E000294600F0EEF80028EBDABBF1000F05D03C
:1012F0000FB1641E00E05446CBF80040B9F1000F76
:1013000006D0FFF743FA02210160C81EBDE8F09F36
:1013100048EA0640FAE700002DE9F0478146164604
:101320008AB0334878440DC88DE80D0030487844C1
:10133000801C03AC0DC884E80D0041F69B300844C6
:10134000372190FBF1F290FBF1F5A5F1800501FB4F
:1013500012041B3C02D56442012000E00020DFF8AB
:1013600090A080460027FA44AAF1BE0A0DE0E007EB
:1013700009D03246684607EB47010AEB810100F0CD
:101380007CFB8DE8070064107F1C002CEFD1184F08
:101390007F44AC3F18E0E80714D007EB04100DF1D0
:1013A000180A90E80E008AE80E00C068F04201D1E9
:1013B00098190890324606A903A800F05EFB03AB1B
:1013C00083E807006D10641C002DE4D132466946A5
:1013D000B8F1000F03A802D000F03BFB01E000F0E1
:1013E0004CFBC9E90001C9F808200AB0BDE8F08744
:1013F000684E0000007B00F08000704770B5164614
:101400000C460546FFF790FE036893F8010101289A
:1014100006D0FF2C0FD8185D68B101202C7070BD6C
:10142000D3F807013246214603F207130344284646
:10143000BDE8704018474FF0FF3070BD30B503462F
:101440001D781DB10A4603E0AC4201D1181A30BD27
:1014500012F8014B002CF7D15B1CF1E730B50346C5
:101460001D783DB10A4612F8014B1CB1AC42FAD1CD
:101470005B1CF5E7181A30BD7546FFF751FEAE4606
:1014800005006946534620F00700854618B020B590
:10149000FEF74CFFBDE820404FF000064FF000077C
:1014A0004FF000084FF0000B21F00701AC46ACE80C
:1014B000C009ACE8C009ACE8C009ACE8C0098D4679
:1014C00070473A2800D2303820F02002412A01D358
:1014D000A2F13700884201D34FF0FF30704710B5BA
:1014E0000446AFF300802046BDE81040FEF7BDBEC5
:1014F0004FF0013C50F8042B51F8043B9A4221D1A3
:10150000A2EB0C03934313EACC1317D150F8042B2E
:1015100051F8043B9A4215D1A2EB0C03934313EA12
:10152000CC130BD150F8042B51F8043B9A4209D14B
:10153000A2EB0C03934313EACC13DBD04FF0000073
:10154000704700BFD01A01BAB1FA81F101F0180159
:1015500022FA01F0CB40C1F12001DBB2C0B2C01AC7
:101560002CFA01F3D11A914311EAC311E6D1704765
:101570005FEA400C08BF91F0000F4FEA8C234FEA5E
:10158000C12243EA51514FEA1C5018BF00F5F04008
:101590004FEA300018BF41F000415FEA6C5C00F098
:1015A0002980BCF1FF3F08BF40F080407047130C1A
:1015B00006BF12044FF0100C4FF0000C130E04BFC6
:1015C00012020CF1080C130F04BF12010CF1040CF1
:1015D000930F04BF92000CF1020CD30F04BF520012
:1015E0000CF1010C11464FF00002A0F11F00A0EB1E
:1015F0000C00704711F0004F08BF704731F00041F8
:101600003FF4D5AF0B0C06BF09044FF0100C4FF0A0
:10161000000C0B0E04BF09020CF1080C0B0F04BFE9
:1016200009010CF1040C8B0F04BF89000CF1020CB2
:10163000CB0F04BF49000CF1010CCCF12003A0EB4F
:101640000C0022FA03F302FA0CF241EA030100F162
:101650000100704720F07F4C80EA030023F07F47B1
:10166000ACEB070303F57C5300F0004003F1FF03EC
:101670002DE980494FEA154B09B44FEA144325EA96
:101680000B4E24EA03480FF2042606EB1327490801
:101690003E785FEA320203FB0667C7F5000707FBE7
:1016A00006F64FEA54374FEAD64606F1020607FB24
:1016B000066CCCF1005C4FEA1C472CEA074C07FB98
:1016C00006F40CFB06F504EB15464FEA961634BFFC
:1016D00000204FF000404FEAD13706FB07FC4FEAED
:1016E0001C4C0CFB0BF7D21B03FB0CF761EB070147
:1016F0000CFB0EF7B0EB074072EB17420CFB08F740
:1017000034BFA2EB0742B2EB074261EB17414FEA4D
:101710000C444FEA910706FB07FC4FEA1C4C0CFBFC
:101720000BF7B0EBC74072EB573203FB0CF734BF3B
:10173000A2EBC742B2EBC74261EB57310CFB0EF78D
:10174000B0EBC70072EB57720CFB08F734BFA2EB8B
:10175000C702B2EBC70261EB5771039F4FEA816189
:1017600041EA921104EBCC044FEAD1374FEA82628E
:1017700006FB07FC42EA90124FEA80604FEA1C4CDD
:101780000CFB0BF7D21B03FB0CF761EB07010CFB07
:101790000EF7B0EB074072EB17420CFB08F734BFB3
:1017A000A2EB0742B2EB074261EB17414FEA8C55BF
:1017B0004FEA910704EB9C2406FB07FC4FEA1C4C04
:1017C0000CFB0BF7B0EBC74072EB573203FB0CF787
:1017D00034BFA2EBC742B2EBC74261EB57310CFBFF
:1017E0000EF7B0EBC70072EB57720CFB08F734BF73
:1017F000A2EBC702B2EBC70261EB577115EB4C25A8
:101800004FEA816141EA92114FEA82624FEAD13791
:1018100042EA901206FB07FC44F100044FEA8060A4
:101820004FEA1C4C0CFB0BF7D21B03FB0CF761EBD4
:1018300007010CFB0EF7B0EB074072EB17420CFBF5
:1018400008F734BFA2EB0742B2EB074261EB174146
:1018500015EB1C154FEA813141EA92414FEA823281
:1018600042EA90424FEA80304FEA0C7644F100049D
:1018700048EA03434EEA0B484FF0000EB2EB080C67
:1018800071EB030724BF624639464EEB0E0E4FF054
:10189000000B0018524149414BEB0B0BB2EB080C0B
:1018A00071EB03077BF1000B24BF624639464EEB18
:1018B0000E0E4FF0000B0018524149414BEB0B0B41
:1018C000B2EB080C71EB03077BF1000B24BF6246FF
:1018D00039464EEB0E0E51EA020718BF46F00106DC
:1018E00016EB0E7655F1000254F1000103D5BDE868
:1018F0008901BDE80088BDE88901BDE80048B61946
:10190000524141EB0101A3F10103704780807F7ECA
:101910007D7C7B7A79787776767574737271717065
:101920006F6E6E6D6C6C6B6A6A6968686766666517
:101930006464636362616160605F5F5E5E5D5D5CA5
:101940005C5B5B5A5A595958585757565655555516
:101950005454535352525251515050504F4F4F4E76
:101960004E4D4D4D4C4C4C4B4B4B4A4A4A494949C4
:101970004848484747474746464645454544444406
:10198000444343434342424242414141002B26D417
:10199000770021D01CB54FEA370703B44FF0100091
:1019A0004FF010014FF000000FBCBDE810400BF1EC
:1019B000010BBBF1010F08BF5FEA170722BF12F14D
:1019C000010211F101014FF0004143F1000300F069
:1019D000004043EA00007047F9D35708DAE746EAC7
:1019E000064613F1400F4FEA16461FDD13F1200F94
:1019F000DFBF16430A46002120335B42C8D0C3F143
:101A0000200746EA064602FA07F74FEA164646EA74
:101A10000706C3F1200722FA03F201FA07F721FAB9
:101A200003F14FF0000342EA0702B1E746EA02067B
:101A300046EA06464FEA164646EA0106BCBF46EAB3
:101A40000646360C4FF000034FF000024FF0000145
:101A50009EE72DE9C048934630B491E8380007C8A6
:101A600031EA400C48BF34EA430C03D5FFF7F2FDDE
:101A7000FFF78CFFF0BCBDE800882DE9C048934615
:101A800030B491E8380007C810F0804F08BF13F059
:101A9000804F03D100F005F8FFF778FFF0BCBDE8F8
:101AA000008820F07F4780EA030023F07F4C07EB9B
:101AB0000C03A3F57C5300F00040A3F1FE0392F069
:101AC000000F00F0B38095F0000F00F077802DE953
:101AD00001494FEA11404FEA144621EA004800FB51
:101AE00006FC24EA064708FB06F607FB08F800FB9D
:101AF00007F718EB06484CEB164C4FEA124B18EB65
:101B000007484FEA15464CEB174022EA0B4E0BFBF9
:101B100006FC25EA06470EFB06F607FB0EFE0BFB4E
:101B200007F71EEB064E4CEB164C4FF000061EEB73
:101B3000074E4CEB174B18EB0B0840F1000018EB6D
:101B40000E0B58EB000840F100008F1A4FF0000117
:101B50003CBFC943661B14BFB5EB040C00213CBF5E
:101B6000C943F61B4FEA17444EEA8E0E27EA044596
:101B70004FEA1C4704FB07622CEA074C05FB07F7FA
:101B80000CFB05F604FB0CFC16EB074642EB174278
:101B900016EB0C4642EB1C421BEB060658EB02020E
:101BA000414146EA9E0601D5BDE80189B619524178
:101BB00041EB0101A3F10103BDE801894FEA14459E
:101BC0004FEA114724EA054621EA074C05FB07F4D2
:101BD00006FB07F70CFB06F105FB0CFC11EB0741BC
:101BE00044EB17444FEA124711EB0C4144EB1C4401
:101BF00022EA074C05FB07F206FB07F70CFB06F68B
:101C000005FB0CFC16EB074642EB174216EB0C46A5
:101C100042EB1C456A1854F1000148BF7047B619E1
:101C2000524141EB0101A3F10103704795F0000F10
:101C300037D04FEA11424FEA144721EA024624EA1C
:101C4000074C02FB07F106FB07F70CFB06F402FB4F
:101C50000CFC14EB074441EB17414FEA154714EB1A
:101C60000C4441EB1C4125EA074C02FB07F506FB3F
:101C700007F70CFB06F602FB0CFC16EB074645EBE0
:101C8000174516EB0C4645EB1C42121951F10001A9
:101C900048BF7047B619524141EB0101A3F101035E
:101CA00070474FEA14454FEA114724EA054621EAF6
:101CB000074C05FB07F106FB07F70CFB06F24FF09C
:101CC000000605FB0CFC12EB074241EB174112EB3F
:101CD0000C4251EB1C4148BF7047921841EB010187
:101CE000A3F10103704700BFFEE770472DE9F04103
:101CF000024600250026002000230024002791F83A
:101D000003C00CF00F0591F803C00CF0100CBCF1EF
:101D1000000F03D091F802C04CEA050591F800C00D
:101D2000BCF1000F31D0146800202BE04FF0010C03
:101D30000CFA00F3B1F800C00CEA03069E4220D171
:101D400083004FF00F0C0CFA03F7BC4305FA03FCB9
:101D50004CEA040491F803C0BCF1280F06D14FF0FF
:101D6000010C0CFA00FCC2F814C00AE091F803C0A0
:101D7000BCF1480F05D14FF0010C0CFA00FCC2F881
:101D800010C0401C0828D1D31460B1F800C0BCF1C9
:101D9000FF0F34DD546800202EE000F1080C4FF0F6
:101DA000010808FA0CF3B1F800C00CEA03069E42E1
:101DB00021D183004FF00F0C0CFA03F7BC4305FA56
:101DC00003FC4CEA040491F803C0BCF1280F05D1D0
:101DD00000F1080C08FA0CF8C2F8148091F803C05E
:101DE000BCF1480F07D100F1080C4FF0010808FAC8
:101DF0000CF8C2F81080401C0828CED35460BDE80F
:101E0000F0810246002093680B400BB1012000E0F6
:101E100000207047416170470161704700BFFEE7D5
:101E200000BFFEE77047000070B5002100230F22BD
:101E3000C47804B3154C246804F4E064C4F5E06489
:101E4000210AC1F10403CA40447804FA03F18478FA
:101E50001440214309010E4C0678A155047804F082
:101E60001F050124AC4005786D11AD0005F1E0259A
:101E7000C5F8004109E0047804F01F050124AC40D6
:101E8000044D0678761145F8264070BD0CED00E053
:101E900000E400E080E100E002490143024A1160F1
:101EA000704700000000FA050CED00E029B1064A79
:101EB000D2690243044BDA6104E0034AD2698243E7
:101EC000014BDA61704700000010024029B1064A58
:101ED00012690243044B1A6104E0034A1269824307
:101EE000014B1A61704700000010024029B1064AF8
:101EF00092690243044B9A6104E0034A9269824367
:101F0000014B9A61704700000010024029B1064A57
:101F1000D2680243044BDA6004E0034AD268824389
:101F2000014BDA60704700000010024030B500211C
:101F30000022002400232D4D6D6805F00C0121B115
:101F4000042905D0082923D105E0294D056022E0A8
:101F5000284D05601FE0254D6D6805F47012234D76
:101F60006D6805F48034022505EB92421CB9224DC0
:101F7000554305600BE01D4D6D6805F400351DB13E
:101F80001E4D5543056002E01A4D5543056002E0C1
:101F9000174D056000BF00BF144D6D6805F0F001DE
:101FA0000909174D6B5C0568DD4045600F4D6D6894
:101FB00005F4E061090A124D6B5C4568DD408560FF
:101FC0000A4D6D6805F46051C90A0D4D6B5C45689A
:101FD000DD40C560054D6D6805F44041890B094D34
:101FE0006B5CC568B5FBF3F5056130BD00100240C0
:101FF00000127A00001BB70000093D00808D5B00D5
:10200000140000202400002010B500F001F810BDDD
:102010000CB50020019000903348006840F48030F7
:102020003149086000BF3048006800F4003000907B
:102030000198401C0190009818B90198B0F5A06F64
:10204000F1D12948006800F4003010B1012000905F
:1020500001E0002000900098012843D12348006847
:1020600040F01000214908600846006820F0030095
:1020700008600846006840F0020008601A4840689E
:10208000194948600846406848600846406840F47E
:10209000806048600846406820F47C10486008462C
:1020A000406840F4881048600846006840F080703E
:1020B000086000BF0C48006800F000700028F9D0EC
:1020C0000948406820F00300074948600846406816
:1020D00040F00200486000BF0348406800F00C0078
:1020E0000828F9D10CBD0000001002400020024079
:1020F000042808D14FF0E021096941F004014FF0B4
:10210000E022116107E04FF0E021096921F00401AC
:102110004FF0E0221161704710B503F09FF90128DC
:1021200001D002F021FE10BD10B51348006840F048
:1021300001001149086008464068104908400E49EE
:102140004860084600680E4908400B490860084688
:10215000006820F4802008600846406820F4FE00F3
:1021600048604FF41F008860FFF74EFF4FF000609B
:102170000449086010BD0000001002400000FFF894
:10218000FFFFF6FE08ED00E010B50121094800F060
:1021900054F868B10848008840F4004006490880B7
:1021A0000121044800F03AF80021024800F039F813
:1021B00010BD000000140040300000207FB505462F
:1021C0000C4601212020FFF771FEADF80450ADF858
:1021D00000400020ADF80600ADF8020069460E4848
:1021E00000F048F8012211460B4800F037F80121B1
:1021F000094800F016F837208DF80C0000208DF803
:102200000D0002208DF80E0001208DF80F0003A8AC
:10221000FFF70AFE7FBD000000140040CA4302829F
:10222000704721B1028842F00102028004E0028876
:102230004FF6FE731A400280704730B50246002008
:1022400000230024158A05EA0103958905EA0104A3
:1022500013B10CB1012000E0002030BD1AB1838918
:102260000B43838102E083898B43838170478184A0
:1022700070470000002202881D4B98420ED01D4B73
:1022800098420BD0B0F1804F08D01B4B984205D03C
:102290001A4B984202D01A4B984204D14FF68F73D2
:1022A0001A404B881A43174B984207D0164B984256
:1022B00004D04FF6FF431A40CB881A4302808B8824
:1022C00083850B8803850A4B98420BD0094B9842B3
:1022D00008D00E4B984205D00D4B984202D00D4BC2
:1022E000984201D10B7A0386012383827047000054
:1022F000002C014000340140000400400008004070
:10230000000C00400010004000140040004001405C
:10231000004401400048014010B540F225511948E1
:1023200000F0AFF828B340F22551164800F032F81B
:10233000144800F061F9C4B21348008800F400406A
:10234000B8B91148008840F2FF31884212DA002102
:102350000E48FFF78CFF0C48008818B901210B4884
:10236000FFF75FFF08490888411C074A11800849A8
:102370000C5405E00448008840F4004002490880FD
:1023800010BD000000480040300000200014004054
:10239000E800002010B50022002340F66A14A14294
:1023A00000D100BF0A1201249440A3B2DC43048090
:1023B00010BD21B1828942F40052828104E08289F9
:1023C0004DF6FF731A4082817047000010B5044635
:1023D0002048844209D101218803FFF797FD00219D
:1023E0004FF48040FFF792FD32E01B48844209D150
:1023F00001214804FFF76AFD00214FF40030FFF788
:1024000065FD25E01548844209D101218804FFF7C4
:102410005DFD00214FF48020FFF758FD18E01048C3
:10242000844209D10121C804FFF750FD00214FF477
:102430000020FFF74BFD0BE00A48844208D1012140
:102440000805FFF743FD00214FF48010FFF73EFD24
:1024500010BD00000038014000440040004800402A
:10246000004C00400050004002460020B1F5007FC3
:1024700000D100BF13880B400BB1012000E0002009
:10248000704770B50246002400230025002040F666
:102490006A16B14200D100BFC1F3421501F01F031B
:1024A000012606FA03F3012D02D19689334006E096
:1024B000022D02D1168A334001E0968A33400C1275
:1024C000012606FA04F41688344013B10CB1012039
:1024D00000E0002070BDF0B5034600240026002572
:1024E000002040F66A17B94200D100BF1846C1F378
:1024F000421401F01F06012707FA06F5012C01D14D
:102500000C3004E0022C01D1103000E014301AB17C
:1025100007682F43076002E00768AF430760F0BD1C
:102520002DE9F04786B005460E460024A24600BFBE
:10253000A1460027B08900B100BF2F462C8A4CF677
:10254000FF700440F08804432C82AC894EF6F310EF
:102550000440B08831890843718908430443AC8141
:10256000AC8A4FF6FF400440B0890443AC8201A816
:10257000FFF7DCFC1F48874202D1DDF810A001E024
:10258000DDF80CA0A88900F4004040B10AEBCA00B5
:1025900000EB0A1031684900B0FBF1F807E00AEBE4
:1025A000CA0000EB0A1031688900B0FBF1F8642022
:1025B000B8FBF0F004012009642101FB1089A8890F
:1025C00000F4004040B1322000EBC900B0FBF1F054
:1025D00000F00700044308E0322000EB09106421FA
:1025E000B0FBF1F000F00F0004432C8106B0BDE811
:1025F000F08700000038014001468888C0F30800D9
:102600007047C1F308028280704700BFFEE74900AF
:1026100050EAC12018BF04204A0D18BF40F0010045
:1026200040F2FF72B2EB515F08BF40F00200012898
:1026300008BF0520704730380A2801D201207047B2
:102640000020704700BF704710B50420FFF750FD11
:10265000104800681049B0FBF1F0104908700D48AF
:1026600000680D49B0FBF1F44FF47A704443012047
:102670000B4908804FF0E020006940F002004FF065
:10268000E021086108464461006940F001000861EA
:1026900010BD00000000002040420F002800002074
:1026A0002A00002070B5044602F0D8FE012810D0A0
:1026B0000B480088844206D309480088B4FBF0F533
:1026C000284602F039F906480088B4FBF0F100FB17
:1026D00011444FF47A7104FB01F000F003F870BD6F
:1026E0002A00002070B5034600224FF0E0267569ED
:1026F0000D4E367803FB06F44FF0E026B16910E08A
:102700004FF0E026B06988420BD0884202D20E1A00
:10271000324402E02E1A0E4432440146A24200D353
:1027200000E0EDE700BF70BD2800002000BF054AB3
:10273000128802F04002002AF9D0C2B2014B1B1DE0
:102740001A8070470038014010B54FF44070FFF711
:10275000A3FBFFF779FF4FF4E13001F059FE4FF48E
:10276000E13001F09BFE00F005F800F033FB01F0D2
:1027700073FC10BD08B501210420FFF7B7FBF02062
:10278000ADF8000010208DF8030003208DF8020042
:1027900069460448FFF7AAFAF0210248FFF73AFB1E
:1027A00008BD00000008014010B5FFF7CDFF06A0EE
:1027B000FDF7E2FD00F028FB00F050F800F048F8CB
:1027C00002F0D0F9002010BD6D6533363136206E31
:1027D00062696F742E2E2E0D0A00000010B504469B
:1027E0000A48008800F4004070B1002007490988B9
:1027F000C1F30E01064A5054114606A0FDF7BCFD78
:1028000014B100200149088010BD000030000020F4
:10281000E800002025730D0A0000000070B5044692
:1028200000250948008800F4004058B100200649FE
:102830000988C1F30E01054A505421461046FDF7A0
:10284000FBFE0546284670BD30000020E800002051
:1028500010B500F0DFFB00F06FF810BD10B52021BF
:102860000548FFF7D9FA4FF47A70FFF71BFF2021D4
:102870000148FFF7CFFA10BD0010014070B588B0D5
:10288000064601F09DFB1F49086803F095FB0446CE
:1028900022460B461CA106A8FDF77AFD012006AAD8
:1028A0000423CDE9022001930093049018480368A3
:1028B00018480268184801681848006800F062F972
:1028C0000120FFF78BFF6420FFF7ECFE002014A22D
:1028D0000E23CDE9022001930490012000901548B9
:1028E00003680C4802680C4801680C48006800F056
:1028F00049F90120FFF772FF6420FFF7D3FE08B00B
:1029000070BD00006800002025302E3166000000F8
:102910003C00002058000020540000204C00002003
:10292000226465677265652063656C7369757322DF
:10293000000000004000002008B50848009008484A
:10294000006814384FF47A7200FB02F10023012270
:1029500004A002F09FFF0B49086008BD7D28000815
:10296000480000206D65333631365F6D69706C6EDE
:102970006F746966795F73775F74696D65725F7490
:1029800061736B00380000202DE9F04393B00446DA
:102990000D4616461F46DDF86890402103A8FDF756
:1029A000C9FE2B4622460AA103A88DE8C002FDF706
:1029B000EFFC03A90EA0FDF7DFFC4FF496720EA109
:1029C00003A800F0D3FB8046404613B0BDE8F08377
:1029D00041542B4D49504C4144444F424A3D302CC8
:1029E00025642C25642C25732C25642C256400007B
:1029F00025730D0A000000004F4B000010B54FF486
:102A0000967205A105A000F0B1FB044607A0FDF7F2
:102A1000B3FC204610BD00004F4B000041542B4D2D
:102A200049504C434C4F53453D30000041542B4DD1
:102A300049504C434C4F53453D300D0A00000000B7
:102A400010B54FF4967205A105A000F08FFB044667
:102A500003A107A0FDF790FC204610BD4F4B0000DE
:102A600041542B4D49504C435245415445000000C0
:102A700025730D0A0000000010B54FF4967205A1F1
:102A800005A000F073FB044607A0FDF775FC204687
:102A900010BD00004F4B000041542B4D49504C4499
:102AA000454C4554453D300041542B4D49504C4414
:102AB000454C4554453D300D0A00000030B591B0FD
:102AC0000446402101A8FDF735FE224608A101A8D1
:102AD000FDF75EFC01A90BA0FDF74EFC4FF49672CA
:102AE0000AA101A800F042FB0546284611B030BDFE
:102AF00041542B4D49504C44454C4F424A3D302C9B
:102B00002564000025730D0A000000004F4B0000F3
:102B10002DE9F04192B004460D4616461F4640216D
:102B200002A8FDF707FE2B4622460AA102A8CDE91E
:102B30000067FDF72DFC02A90FA0FDF71DFC4FF467
:102B400096720FA102A800F011FB8046404612B019
:102B5000BDE8F08141542B4D49504C444953434FFB
:102B60005645525253503D302C25642C25642C255B
:102B7000642C25730000000025730D0A000000007E
:102B80004F4B00002DE9F04FC9B004460D461646E4
:102B90001F460DF5A47898E8000F4FF4807108A83F
:102BA000FDF7C8FD56982B4622460BA18DE8C00FB5
:102BB000069008A8FDF7ECFB08A912A0FDF7DCFBC6
:102BC0004FF4967211A108A800F0D0FA48904898E6
:102BD00049B0BDE8F08F000041542B4D49504C4E98
:102BE0004F544946593D302C25642C25642C2564CE
:102BF0002C25642C25642C25642C25732C25642C11
:102C00002564000025730D0A000000004F4B0000F2
:102C100070B590B004460D4640216846FDF78AFD28
:102C20002B46224608A16846FDF7B2FB69460DA077
:102C3000FDF7A2FB4FF496720CA1684600F096FADD
:102C40000646304610B070BD41542B4D49504C4F94
:102C50004253455256455253503D302C25642C2545
:102C60006400000025730D0A000000004F4B0000B7
:102C700030B591B00446402101A8FDF75BFD224626
:102C800008A101A8FDF784FB01A90BA0FDF774FBC7
:102C90004FF496720AA101A800F068FA054628468A
:102CA00011B030BD41542B4D49504C4F50454E3D15
:102CB000302C25640000000025730D0A0000000080
:102CC0004F4B00002DE9F04104460D46002611A1AE
:102CD0001448FDF7B1FC074613A1FDF7A7FC064613
:102CE00011A10020FDF7A2FC06460FA10020FDF770
:102CF0009DFC06463046FDF78BFC20600AA10020B3
:102D0000FDF794FC06463046FDF782FC2860BDE8DE
:102D1000F08100002B4D49504C444953434F5645D8
:102D200052000000E80000202C2000002DE9F047B0
:102D300004460D4616461F46DDF820804FF0000978
:102D40001EA12248FDF778FC824621A1FDF76EFC0A
:102D500081461FA10020FDF769FC81461CA10020CF
:102D6000FDF764FC81464846FDF752FC206018A13F
:102D70000020FDF75BFC81464846FDF749FC2860D2
:102D800013A10020FDF752FC81464846FDF740FCA8
:102D900030600FA10020FDF749FC81464846FDF751
:102DA00037FC38600AA10020FDF740FC8146484608
:102DB000FDF72EFCC8F80000BDE8F0872B4D495008
:102DC0004C4F42534552564500000000E800002099
:102DD0002C20000008B501211020FFF787F83020D3
:102DE000ADF8000010208DF8030003208DF80200DC
:102DF00069460448FEF77AFF30210248FFF70AF8D7
:102E000008BD00000010014010B510210548FFF773
:102E100003F84FF47A70FFF745FC10210148FEF7E4
:102E2000F9FF10BD0010014008B591E04948008845
:102E300000F400400028F8D047A14A48FDF7FCFB09
:102E400018B10120FFF7CAFC82E047A14548FDF711
:102E5000F3FB98B14848494B494A4A4900904A48CF
:102E6000FFF764FF0120FFF7B9FC6420FFF71AFCAD
:102E7000012145480068FFF7CBFE69E043A13948CE
:102E8000FDF7DAFB48B345494548FFF71BFF012032
:102E9000FFF7A4FC6420FFF705FC42A309220121EF
:102EA0003F480068FFF734FE0120FFF797FC4FF41E
:102EB000FA70FFF7F7FB02F0E1FA04460020034640
:102EC0002246012100903A48006802F035FD0128B1
:102ED0003ED138A0FDF750FA3AE03BA12148FDF77A
:102EE000ABFB80B10020034602460321009030482E
:102EF000006802F021FD012802D136A0FDF73CFA5E
:102F0000FFF7ACFC24E037A11648FDF795FB70B144
:102F1000002003460246032100902548006802F085
:102F20000BFD012814D12BA0FDF726FA10E030A1EB
:102F30000C48FDF781FB40B12EA0FDF71DFA00F013
:102F40008DF80120FFF74AFC02E00120FFF746FC64
:102F50006CE70000300000202B4D49504C45564591
:102F60004E540000E80000202B4D49504C4F425376
:102F700045525645000000005C000020580000202B
:102F800054000020500000204C0000202B4D4950E0
:102F90004C444953434F5645520000006400002002
:102FA0006000002022353730303B35373031220089
:102FB0003800002073746172742073772074696D17
:102FC00065720D0A000000002B4349532045525200
:102FD0004F52000073746F702073772074696D65B1
:102FE000720D0A006175746F2D7265626F6F7400E7
:102FF0002B4950006D6533363136206E6574776F1E
:10300000726B2072656769737465642E2E2E0D0ACB
:10301000000000001CB50748006848B905480421B5
:1030200000230A02CDE9001003A10B4802F0E6F9E3
:103030001CBD0000340000206D65333631365F70F2
:10304000726F636573735F6261636B5F72657375E3
:103050006C745F7461736B00292E000808B5FFF76C
:10306000CDFC10B91FA0FDF787F96420FFF71AFB0C
:1030700021480068FFF722FD10B920A0FDF77CF978
:103080006420FFF70FFBFFF7F7FC10B920A0FDF756
:1030900073F96420FFF706FBFFF7D2FC10B921A0FB
:1030A000FDF76AF96420FFF7FDFA0020022322A24F
:1030B0000321009010480068FFF766FC10B920A0BB
:1030C000FDF75AF96420FFF7EDFA22480068FFF790
:1030D000CFFD10B920A0FDF74FF96420FFF7E2FA09
:1030E00008BD000041542B4D49504C434C4F5345B3
:1030F000204F4B0D0A0000004400002041542B4D8E
:1031000049504C44454C4F424A204F4B0D0A000059
:1031100041542B4D49504C44454C455445204F4B50
:103120000D0A000041542B4D49504C435245415427
:1031300045204F4B0D0A00002231303022000000A4
:1031400041542B4D49504C4144444F424A204F4B2F
:103150000D0A00004800002041542B4D49504C4FAF
:1031600050454E204F4B0D0A0000000070B504463C
:103170000E461546002018490880FF2C0AD800BFCB
:103180001648008800F040000028F9D01349091DB6
:103190000C8003E0214612A001F0E8F9CEB1C5B1E0
:1031A0000FE00A20FFF77EFA0B48008800F4004089
:1031B00038B13046FFF732FB00B106E00020064987
:1031C0000880681E80B2051EEBD100BF0DB901203A
:1031D00070BD0020FCE700003000002000480040E7
:1031E00025730D0A000000002DE9F04105460E464A
:1031F0001C4807681C480068001D01F0DFF950B941
:103200001948006890F82C10012088401749096877
:10321000814316480160681C38B936B1124801680C
:10322000091D134801F008FA1AE07C190E480068DD
:103230004460BC4207D20C480168091D0D48006873
:1032400001F0E0F90CE008480168091D0A4800682F
:1032500001F0D8F909480068844201D207480460A7
:10326000BDE8F0818400002070000020880000206C
:10327000F80B00207800002074000020A00000203F
:1032800010B5044601F0E4F924480068401C2349C5
:1032900008602348006840B9214804600846006877
:1032A00001280DD100F024FA0AE01E48006838B960
:1032B0001B480068C06AE16A884201D81848046067
:1032C00019480068401C1849086008460068606496
:1032D00094F82C10012088401449096808431349C8
:1032E0000860E16A01EB8101114A02EB8100211DB6
:1032F00001F0A2F901F0F0F90A48006868B1084845
:103300000068C06AE16A884207D24FF080500949DC
:103310000860BFF34F8FBFF36F8F10BD8000002098
:10332000700000208C0000209C00002088000020FD
:103330002809002004ED00E010B501F089F91048DB
:103340000068D0B90F4801F04DF90F4801F04AF973
:103350000C480E4908600C480D49086000221021F5
:10336000052001F01BFD064908600846006820B1F1
:1033700008A10348006801F0A3FA01F0ADF910BDFF
:10338000B40000200C0C0020200C0020AC00002019
:10339000B0000020546D72510000000070B523E0B1
:1033A00001F036FC1348006808B9012000E0002055
:1033B000054602F0DFF9BDB901F04AF90D48C068D1
:1033C000C468201D01F0FAF80B480068401E0A4945
:1033D00008600A480068401E0849086001F07CF94E
:1033E000204600F060F800BF044800680028D7D1EC
:1033F00070BD0000E40B0020800000207C00002055
:1034000070B504460D46206C70B1216CE06808442C
:10341000E0606168E068884201D32068E060284687
:10342000226CE168FDF739F970BD2DE9F0410446E1
:103430000F4615464FF00008A66B206C40B9206877
:1034400060BB606802F0D0F880460020606025E034
:103450007DB93946226CA068FDF71FF9216CA06880
:103460000844A060D4E90110884217D32068A06006
:1034700014E03946226CE068FDF70FF9216CE06832
:10348000401AE0602168E068884203D2216C6068DD
:10349000401AE060022D01D106B1761E701CA063B7
:1034A0004046BDE8F08110B50446206B01F04CF9B0
:1034B000204601F049F910BD0146084A1268126819
:1034C0000AB9012200E000220A600A6822B9034A10
:1034D0001268D268106800E000207047AC0000203D
:1034E00030B54FF4A043174800F007042CB1C01DBD
:1034F00020F00700134C041B1B1B0246124C2260D9
:103500000024114D6C60D018083820F007000F4CD3
:10351000206000240D4D2D686C600C4D2D682C60D2
:103520001146441A4C60094C24680C60084D4C68E4
:103530002C60084D4C682C604FF00044064D2C6008
:1035400030BD0000340C0020CC000020D40000204E
:10355000DC000020D8000020E000002000BFFFF7C2
:103560001DFF064800680128F9D94FF08050044932
:103570000860BFF34F8FBFF36F8FF0E7280900207B
:1035800004ED00E02DE9F04106460D461746984649
:10359000069C0DB9246000E02760E66325640121E4
:1035A000204601F019FD84F850800020A064BDE899
:1035B000F08100002DE9F05F82460F4690469B4661
:1035C0000A9E0C9C4FEA8801A522206BFDF7AAF801
:1035D000A8F10100216B01EB800929F0070909F02E
:1035E000070008B9012000E0002028B940F22B3282
:1035F0001BA120A0FCF7C0FE002507E0795D04F1C7
:1036000034004155785D00B902E06D1C102DF5D3F2
:1036100000BF002143200155202E00D31F26E66263
:10362000E66400202065201D00F0E9FF04F1180089
:1036300000F0E5FF2461C6F12000A0616462002073
:10364000606584F858005A465146484600F036FCFA
:1036500020600B9808B10B980460BDE8F09F000053
:103660002E2E5C4672656552544F535C7461736BC9
:10367000732E63004572726F723A25732C25640DA8
:103680000A0000002DE9F04706460D461746984609
:10369000DDE908940DB1012000E0002028B94FF4C5
:1036A000C67209A10EA0FCF767FE5CB1FFF744FEED
:1036B0002660A561E761C4F82080C4F82490201D2D
:1036C00000F09DFFBDE8F0872E2E5C4672656552C6
:1036D000544F535C74696D6572732E630000000073
:1036E0004572726F723A25732C25640D0A00000032
:1036F00010B5002407E004EB84010F4A02EB8100BF
:1037000000F070FF641C202CF5D30C4800F06AFF19
:103710000B4800F067FF0B4800F064FF0A4800F018
:1037200061FF0A4800F05EFF044809490860044848
:103730000849086010BD000028090020A80B0020DF
:10374000BC0B0020D00B0020E40B0020F80B002065
:10375000740000207800002010B50146164800E0F3
:10376000006803688B42FBD30246436813448B42D4
:1037700004D143684C682344436001460A464B68C1
:1037800013440468A34211D10C4C03682468A3427B
:1037900008D04B680468646823444B6003681B6866
:1037A0000B6005E0054B1B680B6001E003680B60D4
:1037B000884200D0016010BDCC000020D400002061
:1037C0002DE9F04104460D4616461F464FF000080D
:1037D00065602461B5420CD8F01BA169884202D310
:1037E0004FF0010811E0211D0948006800F00AFFB0
:1037F0000BE0BE4204D2BD4202D34FF0010804E008
:10380000211D0448006800F0FDFE4046BDE8F0813F
:10381000B0000020AC00002070B5054600F018FF95
:10382000A86B08B9012400E0002400F055FF2046F1
:1038300070BD70B5054600F00BFFA86BE96B8842C0
:1038400001D1012400E0002400F046FF204670BDB5
:103850002DE9F3410D460098846C00272CB940F601
:10386000CE121AA11EA0FCF787FDA06BE16B884267
:1038700001D2012000E0002028B940F6CF1213A1A8
:1038800017A0FCF779FDA06BE16B88421BD294F97D
:1038900045602A4669462046FFF7C7FD0746701C6B
:1038A00060B9606A08B9012000E0002050B904F155
:1038B000240001F005FF28B1012703E0701C40B28D
:1038C00084F8450000BF3846BDE8FC812E2E5C46DA
:1038D00072656552544F535C71756575652E630052
:1038E0004572726F723A25732C25640D0A00000030
:1038F000F8B505460F4613480068C068C468201D27
:1039000000F05CFEE069012818D1A06941192B463E
:103910003A462046FFF754FF80B1002003462A466E
:1039200001460090204602F007F806462EB94FF4F3
:10393000027205A10AA0FCF71FFD00BF2046616AC4
:103940008847F8BDAC0000202E2E5C46726565529B
:10395000544F535C74696D6572732E6300000000F0
:103960004572726F723A25732C25640D0A000000AF
:10397000F0B587B070E0039800280CDA04AE2EB9D9
:1039800040F2E7223AA140A0FCF7F6FCD6E900207D
:10399000B168904700BF039800285DDB059C606913
:1039A00008B9012000E0002010B9201D00F006FE3B
:1039B00002A800F0C7F8054603980A284AD2DFE8B3
:1039C00000F00905072C2E4506082D2F00BF00BF6B
:1039D00000BF00BF0498A269811803462A4620460A
:1039E000FFF7EEFEC0B12046616A8847E069012812
:1039F00012D1002000900498A169421800231946B2
:103A0000204601F099FF07462FB940F2213218A154
:103A10001DA0FCF7B1FC00BF1DE000BF1BE000BF14
:103A20000498A061A06908B1012000E0002028B935
:103A30004FF44E720EA114A0FCF79EFCA069411930
:103A40002B462A462046FFF7BBFE04E0204600F046
:103A50007BFE00E000BF00BF00231A4603A90E480A
:103A6000006801F0D5F9002885D107B0F0BD00004D
:103A70002E2E5C4672656552544F535C74696D65B9
:103A800072732E63000000004572726F723A2573E4
:103A90002C25640D0A000000B4000020F8B505468E
:103AA0000C4601F0B5F8684600F04CF80646009860
:103AB00020BB44B9B54206D801F05CFE3146284629
:103AC000FFF716FF1CE03CB10E480068006808B91B
:103AD000012000E000200446A91B22460A48006895
:103AE00000F004FF01F046FE50B94FF08050074946
:103AF0000860BFF34F8FBFF36F8F01E001F03AFE14
:103B0000F8BD0000B0000020B400002004ED00E08B
:103B10000A490968096809B9012100E0002121B1B9
:103B20004FF0FF31064A116006E004490968C96890
:103B3000C868034A416811607047000074000020A3
:103B4000A000002070B5044601F098FC0546074827
:103B50000068854204D200F00BF80120206001E0EB
:103B60000020206001480560284670BDBC00002090
:103B70002DE9F8432DE021480068C06805681F481A
:103B80000068C068C468201D00F018FD2046616A06
:103B90008847E06901281CD1A0694619AE4207D9BF
:103BA00066602461211D1548006800F02BFD10E0BF
:103BB000002003462A4601460090204601F0BCFE44
:103BC00007462FB940F292320DA113A0FCF7D4FBA7
:103BD00000BF0A480068006808B9012000E0002022
:103BE0000028C8D00548D0F800800F480068034975
:103BF00008600D48C0F80080BDE8F883AC000020E4
:103C00002E2E5C4672656552544F535C74696D6527
:103C100072732E63000000004572726F723A257352
:103C20002C25640D0A000000B00000200B4800683D
:103C3000401C08B9012000E0002020B9F42208A1AE
:103C400012A0FCF799FB00BF502080F31188BFF34E
:103C50004F8FBFF36F8F00BF00BFFEE7C000002093
:103C60002E2E5C4672656552544F535C706F7274B1
:103C700061626C655C525644535C41524D5F434DEA
:103C8000335C706F72742E63000000004572726FB7
:103C9000723A25732C25640D0A00000008B500BF98
:103CA0006846FFF709FC044620460099FFF7F6FE38
:103CB000FFF75EFEF4E770B5044600F0C9FC94F926
:103CC00045501AE0A06C38B100212046FFF7C0FD36
:103CD00088B100F06BFE0EE0606A08B9012000E0D8
:103CE000002038B904F1240001F0EAFC18B100F01A
:103CF0005DFE00E003E0681E45B2002DE2DC00BF7F
:103D0000FF2084F8450000F0E7FC00F0A1FC94F9E6
:103D1000445010E0206908B9012000E0002048B9B3
:103D200004F1100001F0CCFC08B100F03FFE681E69
:103D300045B200E001E0002DECDC00BFFF2084F87C
:103D4000440000F0C9FC70BD2DE9F04104464FF07D
:103D5000000800F05DFF3E48006808B9FFF7C0FBAF
:103D60003C480068204000285FD1A4B1083404F02A
:103D7000070080B104F00700C0F10800044404F01B
:103D8000070008B9012000E0002020B9BF2232A1BD
:103D90003BA0FCF7F1FA002C47D03D480068844274
:103DA00043D83C4E3046056801E02E462D686868D1
:103DB000A04202D228680028F7D125480068854231
:103DC00033D0306800F10808286830606868001B4C
:103DD000102813D92F1907F0070008B9012000E0B7
:103DE000002020B9EC221CA125A0FCF7C5FA6868C8
:103DF000001B78606C603846FFF7AEFC24496868A9
:103E00000968081A224908600846006822490968BA
:103E1000884203D21E4800681F4908600D4968683F
:103E20000968084368600020286001F0A3FC08F0DE
:103E3000070008B9012000E0002028B94FF496726D
:103E400005A10FA0FCF798FA4046BDE8F0810000FC
:103E5000D4000020E00000202E2E5C4672656552E2
:103E6000544F535C706F727461626C655C4D656D2C
:103E70004D616E675C686561705F342E63000000A1
:103E80004572726F723A25732C25640D0A0000008A
:103E9000D8000020CC000020DC000020064800688C
:103EA00030B10549096801F15000096D491C0160F4
:103EB000014800687047000070000020001F4FF0AC
:103EC00080730360001F21F001030360001F034B98
:103ED0000360143802602038704700002D3C000851
:103EE0002DE9F84F82464FF0000B2AF0030A5046A6
:103EF00002F08EF8009002F05FF88046074A084B07
:103F000001F072FE06460022064B01F06BFF0446EC
:103F100001F090FD83465846BDE8F88F7644CF7790
:103F200001405F3F000018402DE9F84F82464FF0F6
:103F3000000B2AF0030A504602F06AF8009002F0E3
:103F40003BF88046074A084B01F04EFE0646074AFA
:103F5000074B01F0A1FD044601F06CFD8346584675
:103F6000BDE8F88FD7A3703D0AF7653FCDCCCCCC28
:103F7000CC6C47C070B503460C46154600210026A0
:103F8000002200BF13E0985C414008260BE001F0DE
:103F9000800020B1312080EA4100C1B201E0480632
:103FA000010E701EC6B2002EF1DC501CC2B2A2423D
:103FB000E9DBA94201D0012070BD0020FCE7000030
:103FC00008B50020009000F011FA6420FEF78AFB8B
:103FD000E32000F0ADF9124908604620FEF762FBCD
:103FE000E52000F0A5F90E4948601920FEF75AFBBC
:103FF00000F0FCF91920FEF755FB6A46E621402047
:1040000000F064F96420FEF76DFB00F0EFF9642026
:10401000FEF768FB00F0F5F96420FEF763FB08BDCE
:104020006800002010B540210A48FDF7F3FE80210A
:104030000848FDF7EFFE0220FEF754FB402105483B
:10404000FDF7EAFE0220FEF74DFB40210148FDF797
:10405000E1FE10BD000C014008B501210820FDF76C
:1040600045FFC020ADF8000014208DF803000320A8
:104070008DF8020069460648FDF738FE80210448A5
:10408000FDF7CAFE40210248FDF7C6FE08BD00004C
:10409000000C014010B540210A48FDF7BBFE80210D
:1040A0000848FDF7B9FE0220FEF71CFB4021054839
:1040B000FDF7B2FE0220FEF715FB40210148FDF797
:1040C000A9FE10BD000C014070B500250024802120
:1040D0001048FDF7A1FE00BF18E040210D48FDF794
:1040E00099FE0220FEF7FEFA40210A48FDF794FEF1
:1040F0006006040E80210748FDF783FE08B1601CAE
:10410000C4B20220FEF7EEFA681CC5B2082DE4DB4B
:10411000204670BD000C014070B504460D461646A1
:1041200000F062F8002141EA4401C8B200F030F822
:1041300041F2883000F08CF818B100F06FF80120DF
:1041400070BD284600F024F841F2883000F080F875
:1041500018B100F063F80120F2E700F045F8012102
:1041600001EB4401C8B200F013F841F2883000F0CE
:104170006FF818B100F052F80120E1E7FFF7A4FF53
:104180003070FFF787FF00F049F80020D8E7000003
:1041900070B50446002540211248FDF73BFE00BFE4
:1041A0001DE004F0800020B180210E48FDF734FEB0
:1041B00003E080210B48FDF72DFE6006040E02206F
:1041C000FEF790FA40210748FDF726FE0220FEF791
:1041D00089FA40210348FDF71DFE681CC5B2082D71
:1041E000DFDB70BD000C014010B580210A48FDF7EF
:1041F00013FE40210848FDF70FFE0220FEF772FA79
:1042000080210548FDF706FE0220FEF76BFA4021EB
:104210000148FDF7FFFD10BD000C014010B58021E5
:104220000A48FDF7F7FD40210848FDF7F3FD02209D
:10423000FEF758FA40210548FDF7EEFD80210348BE
:10424000FDF7EAFD0220FEF74DFA10BD000C01401B
:1042500010B5044680211448FDF7DEFD0220FEF76C
:1042600041FA40211048FDF7D7FD0220FEF73AFA47
:104270000EE0601E84B2002C03DD0120FEF732FA4E
:1042800006E00AA0FCF778F8FFF7C8FF012010BD90
:1042900080210548FDF7B5FD0028EAD140210248FC
:1042A000FDF7B8FD0020F2E7000C0140736874329E
:1042B000302069326320776169742061636B206606
:1042C00061696C65642121210D0A000070B5054605
:1042D0000E461446FFF788FF002141EA4501C8B2A7
:1042E000FFF756FF41F28830FFF7B2FF18B1FFF732
:1042F00095FF012070BD3046FFF74AFF41F288303C
:10430000FFF7A6FF18B1FFF789FF0120F2E75CB1C4
:104310002078FFF73DFF41F28830FFF799FF18B191
:10432000FFF77CFF0120E5E7FFF778FF0020E1E7DA
:10433000F8B5044600250026FFF756FF8020FFF75A
:1043400027FF41F28830FFF783FF18B1FFF766FFC0
:104350000020F8BD2046FFF71BFF41F28830FFF731
:1043600077FF18B1FFF75AFF0020F2E7FFF73CFF95
:104370008120FFF70DFF04E0FFF736FF8120FFF7F4
:1043800007FF41F28830FFF763FF0028F4D1462091
:10439000FEF788F9FFF798FE8DF80000FFF742FE60
:1043A000FFF792FE8DF80100FFF73CFEFFF78CFE51
:1043B0000546FFF76FFEFFF731FF2A4602216846E8
:1043C000FFF7D8FD9DF801009DF8001000EB0120DB
:1043D00086B2E32C04D13046FFF7A6FD074603E082
:1043E0003046FFF77DFD07463846B2E708B50020A6
:1043F00000906A46E7214020FFF78EFE9DF80000FE
:1044000008BD10B50022FE214020FFF75FFF10BD60
:1044100010B586B00446012144F20400FDF766FDA4
:104420001C48FDF7D3FF4FF40070ADF814000320D3
:104430008DF8160018208DF8170005A91648FDF70D
:1044400055FC4FF48060ADF8140004208DF817007F
:1044500005A91148FDF74AFC01940020ADF80800B9
:10446000ADF80A00ADF80C00ADF810000C20ADF866
:104470000E0001A90748FEF753F8012240F225512A
:104480000448FEF728F801210248FDF792FF06B024
:1044900010BD0000003801400008014010B586B092
:1044A000044601210820FDF721FD01218804FDF7C4
:1044B000FDFC2A48FDF78AFF4FF48060ADF810003C
:1044C00003208DF8120018208DF8130004A9244849
:1044D000FDF70CFC4FF40060ADF8100004208DF8DF
:1044E000130004A91E48FDF701FC00940020ADF85C
:1044F0000400ADF80600ADF80800ADF80C000C2083
:10450000ADF80A0069461548FEF70AF8012113487C
:10451000FDF74FFF012240F225511048FDF7DBFF68
:1045200027208DF8140002208DF8150003208DF847
:10453000160001208DF8170005A8FDF775FC41F65F
:104540001F416320FDF73AFE002006490880002144
:104550000548FDF766FE06B010BD000000480040AB
:10456000000C014030000020001400400FB438B5AA
:1045700005A800900F48009A0499FBF7EBFE002075
:1045800000900C48FCF76AF885B200240DE000BFEB
:1045900040210948FDF768FF0028F9D00548015D72
:1045A0000548FEF72EF8601C84B2AC42EFDB38BC45
:1045B0005DF814FBE80400200048004001460A6949
:1045C000D1E901309860D1E9010358605068884210
:1045D00001D188685060002008611068401E10609A
:1045E0001068704700F1080141604FF0FF318160B1
:1045F00000F10801C16001610021016070470021E4
:104600000161704710B502460B685C1C0CB910695B
:1046100007E002F1080000E04068446824689C421A
:10462000FAD944684C604C68A160886041600A61B6
:104630001468641C146010BD42684A6093688B6003
:10464000936859609160086103685B1C0360704760
:1046500010B500BF502080F31188BFF34F8FBFF318
:104660006F8F00BF0B480068401C0A49086008466D
:10467000006801280DD108480068C0B208B90120BF
:1046800000E0002028B94FF4BD7204A10EA0FBF792
:1046900073FE10BDC000002004ED00E02E2E5C462D
:1046A00072656552544F535C706F727461626C65D1
:1046B0005C525644535C41524D5F434D335C706FC6
:1046C00072742E63000000004572726F723A257397
:1046D0002C25640D0A00000010B50B48006828B9AD
:1046E00040F2811209A114A0FBF746FE06480068BB
:1046F000401E054908600846006820B9002080F384
:10470000118800BF00BF10BDC00000202E2E5C46E7
:1047100072656552544F535C706F727461626C6560
:104720005C525644535C41524D5F434D335C706F55
:1047300072742E63000000004572726F723A257326
:104740002C25640D0A00000070B506463546002E83
:1047500035D0083D2C461A4960680968084008B100
:10476000012000E0002028B94FF4A07215A11FA07D
:10477000FBF702FE206808B9012000E0002028B9FC
:1047800040F241120FA119A0FBF7F6FD0C49606839
:104790000968084098B1206888B9094960680968C3
:1047A0008843606000F034FA14496068096808447E
:1047B000124908602046FEF7CFFF00F0DBFF70BD16
:1047C000E00000202E2E5C4672656552544F535C0B
:1047D000706F727461626C655C4D656D4D616E6782
:1047E0005C686561705F342E630000004572726F13
:1047F000723A25732C25640D0A000000D8000020B1
:10480000064800684FF47A71B0FBF1F0401E4FF09B
:10481000E021486107200861704700000000002087
:1048200070B5FBF771FD0546102D11D305F1E020A1
:1048300090F8F04310480078844201DB012000E04A
:10484000002028B94FF42A720CA117A0FBF794FDA1
:104850001948006800F4E06018490968884201D8E6
:10486000012000E0002028B94FF42E7203A10EA011
:10487000FBF782FD70BD0000C40000202E2E5C46B8
:1048800072656552544F535C706F727461626C65EF
:104890005C525644535C41524D5F434D335C706FE4
:1048A00072742E63000000004572726F723A2573B5
:1048B0002C25640D0A0000000CED00E0C80000206B
:1048C000024600200BE0084B53F8303033B9064B5A
:1048D00043F8301003EBC0035A6002E0401C082884
:1048E000F1D300BF70470000E80800202DE9F04137
:1048F00005460E4617462C46FFF7AAFE94F94400DB
:10490000401C10B9002084F8440094F94500401C74
:1049100010B9002084F84500FFF7DEFEA06B28B92F
:104920003A46314604F1240000F070F82046FFF7C3
:10493000C2F9BDE8F081000070B504460025ACB1B5
:104940000F48006808B9012000E0002028B940F2B3
:10495000CF420CA110A0FBF70FFD00F059F9002188
:104960002046FEF741FC00F005FF05463DB94FF03B
:1049700080500D490860BFF34F8FBFF36F8F70BD3C
:10498000A80000202E2E5C4672656552544F535C81
:104990007461736B732E63004572726F723A257384
:1049A0002C25640D0A00000004ED00E001200149FF
:1049B000086070479400002070B504460D462CB97D
:1049C00040F6063207A10CA0FBF7D6FC0E480168A2
:1049D00018312046FFF716FE01212846FEF704FC99
:1049E00070BD00002E2E5C4672656552544F535CBC
:1049F0007461736B732E63004572726F723A257324
:104A00002C25640D0A0000007000002070B50546DA
:104A10000E4614462DB940F6313209A10DA0FBF720
:104A2000ABFC1048016818312846FFF705FE0CB1B1
:104A30004FF0FF3621463046FEF7D6FB70BD000032
:104A40002E2E5C4672656552544F535C7461736BD5
:104A5000732E63004572726F723A25732C25640DB4
:104A60000A0000007000002070B505462C46002D9D
:104A70004BD02649E06A0968C96A884245D2A069D4
:104A800000F0004028B921480068C06AC0F1200049
:104A9000A061E16A01EB81011D4A02EB81016069BD
:104AA000884201D1012000E0002050B3201DFFF713
:104AB00085FD78B9E06A00EB8000154951F82000C7
:104AC00040B994F82C1001208840124909688143AC
:104AD000104801600D480068C06AE06294F82C102C
:104AE000012088400B49096808430A490860E16AC7
:104AF00001EB8101064A02EB8100211DFFF79CFDBD
:104B000003E002480068C06AE06270BD70000020E7
:104B1000280900208800002010B504462CB940F672
:104B2000C13205A109A0FBF727FC0C4800682060F2
:104B30000B480068606010BD2E2E5C4672656552A1
:104B4000544F535C7461736B732E63004572726FC4
:104B5000723A25732C25640D0A000000980000208D
:104B6000840000201CB51A4800210B468222CDE9A2
:104B7000001018A1194800F041FC0446012C02D194
:104B800000F0A0FE0446012C15D100BF502080F398
:104B90001188BFF34F8FBFF36F8F00BF4FF0FF300F
:104BA0000F49086001200F49086000200E49086085
:104BB00000F08AF80BE0601C08B1012000E0002042
:104BC00028B940F2847209A10DA0FBF7D5FB1CBDEA
:104BD000A400002049444C45000000005D35000859
:104BE000A00000208C000020840000202E2E5C46B7
:104BF00072656552544F535C7461736B732E63001E
:104C00004572726F723A25732C25640D0A000000FC
:104C100002480068401C014908607047A800002055
:104C200010B51B48006818B101201A4908602DE032
:104C300000201849086018480068B0FA80F0C0F1F8
:104C40001F0404EB8400154951F8200008B101202D
:104C500000E0002028B940F6F62211A115A0FBF7CC
:104C60008BFB04EB84010D4A02EB8100416849682B
:104C7000416000F1080142688A4202D141684968F6
:104C800041604168C9680F4A116000BF10BD000053
:104C9000A80000209400002088000020280900209F
:104CA0002E2E5C4672656552544F535C7461736B73
:104CB000732E63004572726F723A25732C25640D52
:104CC0000A000000700000201CB522480146097847
:104CD0000191FF21024611700146097800919DF86B
:104CE000001001F050011C4A117007211B4A11608D
:104CF00009E01A490968491E184A11609DF8001018
:104D00004906090E00919DF8001001F080018029EC
:104D1000EFD0124909680902104A1160114609884A
:104D200001F4E06111600B4A019911700C480068B0
:104D300040F470000A4908600846006840F070407E
:104D40000860FFF75DFD002006490860FBF7A6FA42
:104D500000201CBD00E400E0C4000020C8000020CA
:104D600020ED00E0C000002010B500BF502080F30F
:104D70001188BFF34F8FBFF36F8F00BF00F084FB2C
:104D800018B14FF080500449086000BF002080F344
:104D9000118800BF10BD000004ED00E02DE9F843CC
:104DA00005460E4690460DB1012000E0002028B9CE
:104DB0004FF4C4720DA112A0FBF7DEFA0EB9002762
:104DC00001E005FB06F707F15400FEF7BDFF0446BE
:104DD00044B104F1540943464A46314628460094FA
:104DE000FEF7D0FB2046BDE8F88300002E2E5C467F
:104DF00072656552544F535C71756575652E63001D
:104E00004572726F723A25732C25640D0A000000FA
:104E10002DE9FF4782B005460E461F464FF0000AB7
:104E20002C462CB940F2DC4261A166A0FBF7A4FA43
:104E30000EB9206C08B9012000E0002028B940F22A
:104E4000DD425BA15FA0FBF797FA00F007FB08B912
:104E5000049808B9012000E0002028B94FF49C62B2
:104E600053A158A0FBF788FA00BFFFF7F1FBD4F875
:104E70003890B9F1000F3DD0D4F80C80314620466F
:104E8000FEF7BEFADFB9A9F10100A063206810B9EE
:104E9000FFF704F86060206908B9012000E00020F5
:104EA00010BB04F1100000F00BFCE8B14FF0805093
:104EB00048490860BFF34F8FBFF36F8F14E0C4F809
:104EC0000C80606A08B9012000E0002060B904F19C
:104ED000240000F0F5FB38B14FF080503D490860E8
:104EE000BFF34F8FBFF36F8FFFF7F6FB012006B0C4
:104EF000BDE8F087049818B9FFF7EEFB0020F6E74D
:104F0000BAF1000F04D16846FFF706FE4FF0010A20
:104F1000FFF7E2FBFFF77CFEFFF79AFB94F94400F2
:104F2000401C10B9002084F8440094F94500401C4E
:104F300010B9002084F84500FFF7CEFB04A96846AD
:104F400000F00CFA40BB2046FEF766FCF0B120688A
:104F500030B9FFF77DFB6068FFF786FDFFF7BCFB0C
:104F600004F124000499FFF727FD2046FEF7A3FE75
:104F700000F000FC00287FF478AF4FF08050154916
:104F80000860BFF34F8FBFF36F8F6EE72046FEF7C9
:104F900092FE00F0EFFB68E72046FEF78CFE00F083
:104FA000E9FB2046FEF738FC0028EED000209EE703
:104FB0002E2E5C4672656552544F535C7175657553
:104FC000652E63004572726F723A25732C25640D4D
:104FD0000A00000004ED00E070B505460E462C46C0
:104FE0002CB940F21B121EA122A0FBF7C5F9FFF756
:104FF0002FFBD4E90F12206801FB02006060002043
:10500000A0632068A060E06B401E226C216800FB5A
:105010000210E060FF2084F8440084F845009EB947
:10502000206908B9012000E00020A8B904F11000AF
:1050300000F046FB80B14FF0805012490860BFF38A
:105040004F8FBFF36F8F07E004F11000FFF7CAFA2C
:1050500004F12400FFF7C6FAFFF73EFB012070BD04
:105060002E2E5C4672656552544F535C71756575A2
:10507000652E63004572726F723A25732C25640D9C
:105080000A00000004ED00E02DE9FF4383B006466E
:1050900088461D464FF0000934462CB940F2D9220B
:1050A00060A165A0FBF768F9B8F1000F01D1206C91
:1050B00008B9012000E0002028B940F2DA2259A105
:1050C0005DA0FBF759F9022D02D1E06B012801D157
:1050D000012000E0002028B940F2DB2251A156A0B7
:1050E000FBF74AF900F0BAF908B9059808B90120A8
:1050F00000E0002028B940F2DE224AA14EA0FBF7D2
:105100003BF900BFFFF7A4FAA06BE16B884201D323
:10511000022D38D12A4641462046FEF786F9074639
:10512000A06C68B129462046FEF792FB28B34FF0E9
:10513000805045490860BFF34F8FBFF36F8F1CE06D
:10514000606A08B9012000E0002068B904F1240079
:1051500000F0B6FA88B14FF080503B490860BFF3C9
:105160004F8FBFF36F8F08E03FB14FF0805036494B
:105170000860BFF34F8FBFF36F8FFFF7ADFA0120C9
:1051800007B0BDE8F083059818B9FFF7A5FA00202D
:10519000F6E7B9F1000F04D101A8FFF7BDFC4FF00D
:1051A0000109FFF799FAFFF733FDFFF751FA94F978
:1051B0004400401C10B9002084F8440094F94500D4
:1051C000401C10B9002084F84500FFF785FA05A9B6
:1051D00001A800F0C3F8F0B92046FEF72AFBA0B101
:1051E00004F110000599FFF7E7FB2046FEF763FD89
:1051F00000F0C0FA002885D14FF0805012490860B5
:10520000BFF34F8FBFF36F8F7CE72046FEF753FD50
:1052100000F0B0FA76E72046FEF74DFD00F0AAFA5E
:105220000020ADE72E2E5C4672656552544F535CEC
:1052300071756575652E63004572726F723A2573DC
:105240002C25640D0A00000004ED00E02DE9F05F5C
:1052500080468A4615461E4644462CB940F29F3287
:1052600035A13AA0FBF788F8BAF1000F01D1206C04
:1052700008B9012000E0002028B94FF468722EA17F
:1052800032A0FBF779F8022E02D1E06B012801D1A0
:10529000012000E0002028B940F2A13226A12BA075
:1052A000FBF76AF8FFF7BCFA00BF5021EFF311805B
:1052B00081F31188BFF34F8FBFF36F8F00BF074695
:1052C000A06BE16B884201D3022E2BD194F945B03B
:1052D000324651462046FEF7A8F80BF10100C8B946
:1052E000A06C40B131462046FEF7B2FAB8B1B5B174
:1052F0000120286013E0606A08B9012000E0002066
:1053000068B904F1240000F0DBF940B13DB101209F
:10531000286004E00BF1010040B284F845004FF032
:10532000010901E04FF0000900BF87F3118800BFB9
:105330004846BDE8F09F00002E2E5C46726565521F
:10534000544F535C71756575652E63004572726FBD
:10535000723A25732C25640D0A0000002DE9F041F6
:1053600004460D462CB940F6CB3219A11DA0FBF71F
:1053700003F82DB940F6CC3215A11AA0FAF7FCFFBC
:10538000FFF766F91B4807682868401C08B9002623
:1053900019E0194920680968884204D06068B84259
:1053A00001D801260FE06068381A2968884209D2BE
:1053B00028686168791A401A28602046FFF7ACFB1C
:1053C000002600E00126FFF787F93046BDE8F081AE
:1053D0002E2E5C4672656552544F535C7461736B3C
:1053E000732E63004572726F723A25732C25640D1B
:1053F0000A00000084000020980000202DE9FF4FE3
:1054000085B0804689461746DDE912ABB800FEF745
:105410009BFC064656B15C20FEF796FC04460CB198
:10542000266304E03046FFF78FF900E000247CB1EA
:105430000020CDE900ABCDE902403A46494640465E
:10544000089BFEF7B7F82046FDF71AFF012501E09B
:105450004FF0FF35284609B0BDE8F08F05490968CF
:1054600009B9012005E00449096809B9022000E0F2
:10547000002070478C000020A80000200149086827
:1054800070470000840000202DE9F0414FF0000833
:1054900041480068002872D140480068451C3F48D8
:1054A0000560EDB93E480068006808B9012000E0D9
:1054B000002028B940F6D9123AA13FA0FAF75CFFC4
:1054C0003748076840480068354908603E4807602B
:1054D0003E480068401C3D490860FEF719FB00BFCC
:1054E0003B48006885423CD300BF2D4800680068F7
:1054F00008B9012000E0002020B14FF0FF3034490E
:1055000008602DE026480068C068C4686668B54237
:1055100002D22F48066023E0201DFFF74FF8A06A53
:1055200018B104F11800FFF749F894F82C10012085
:10553000884028490968084326490860E16A01EB68
:105540008101254A02EB8100211DFFF775F82349EF
:10555000E06A0968C96A8842C7D34FF00108C4E706
:1055600000BF1E480068C06A00EB80001A4951F86D
:105570002000012801D94FF0010805E0FFE7184895
:105580000068401C164908601648006808B14FF0D2
:1055900001084046BDE8F081A800002084000020FA
:1055A000740000202E2E5C4672656552544F535C89
:1055B0007461736B732E63004572726F723A257358
:1055C0002C25640D0A0000007800002098000020BF
:1055D000A000002088000020280900207000002082
:1055E000900000209400002070B505462C4600264F
:1055F000002D4BD026480068844201D1012000E0F4
:10560000002028B940F6C76222A127A0FAF7B4FE0D
:10561000206D28B940F6C9621EA123A0FAF7ACFE9E
:10562000206D401E2065E16CE06A88422ED0206D1E
:1056300060BB201DFEF7C2FF78B9E06A00EB800076
:105640001D4951F8200040B994F82C1001208840E1
:105650001A490968814319480160E06CE062E06A18
:10566000C0F12000A06194F82C100120884013495B
:105670000968084311490860E16A01EB81010E4A9B
:1056800002EB8100211DFEF7D7FF0126304670BDD9
:10569000700000202E2E5C4672656552544F535C9C
:1056A0007461736B732E63004572726F723A257367
:1056B0002C25640D0A000000280900208800002025
:1056C00070B50646F068C4682CB940F661321AA17C
:1056D0001EA0FAF751FE04F11800FEF76FFF1F48F5
:1056E0000068A8B9201DFEF769FF94F82C1001206E
:1056F00088401B490968084319490860E16A01EBC1
:105700008101184A02EB8100211DFEF795FF04E09C
:1057100004F118011448FEF78FFF1449E06A096884
:10572000C96A884204D9012501201149086000E0B6
:105730000025284670BD00002E2E5C46726565521D
:10574000544F535C7461736B732E63004572726FB8
:10575000723A25732C25640D0A000000A800002071
:105760008800002028090020D00B002070000020B5
:105770009400002070B5002400263448006828B941
:105780004FF4FD6232A137A0FAF7F6FDFEF760FF95
:105790002E480068401E2D49086008460068002811
:1057A0004FD13448006800284BD024E03248C0680C
:1057B000C46804F11800FEF701FF201DFEF7FEFE8D
:1057C00094F82C10012088402C49096808432B4983
:1057D0000860E16A01EB8101294A02EB8100211D89
:1057E000FEF72AFF2749E06A0968C96A884202D39E
:1057F0000120254908602048006808B9012000E020
:1058000000200028D2D00CB1FEF782F91F480568AD
:1058100065B100BFFFF738FE10B101201A490860DA
:105820006D1E002DF6D1002018490860164800684A
:1058300038B10126300716490860BFF34F8FBFF318
:105840006F8FFEF749FF304670BD0000A8000020B2
:105850002E2E5C4672656552544F535C7461736BB7
:10586000732E63004572726F723A25732C25640D96
:105870000A00000080000020D00B002088000020DB
:1058800028090020700000209400002090000020D3
:1058900004ED00E02DE9FC4705460E461746984604
:1058A000DDF828902C20FEF74FFA04463CB1434621
:1058B0003A4631462846CDE90094FDF7E3FE2046FE
:1058C000BDE8FC871CB50024FDF736FD0B480068D9
:1058D00058B10B481F2100234FF48272CDE900100C
:1058E00008A10A48FFF78AFD04462CB940F233129A
:1058F00007A10DA0FAF740FD20461CBDB400002012
:10590000B8000020546D7220537663009D3C00085F
:105910002E2E5C4672656552544F535C74696D65FA
:1059200072732E63000000004572726F723A257325
:105930002C25640D0A0000002DE9FF4704460D46A2
:1059400016461F46DDF830804FF000092CB94FF4A1
:10595000D37217A11CA0FAF70FFD1F48006810B3FF
:10596000009501960294062D15DAFFF777FD0228BF
:1059700008D100234246694617480068FFF784FBB8
:10598000814610E000231A46694613480068FFF775
:105990007BFB814607E000233A4669460E480068D3
:1059A000FFF754FC8146484604B0BDE8F08700008C
:1059B0002E2E5C4672656552544F535C74696D655A
:1059C00072732E63000000004572726F723A257385
:1059D0002C25640D0A000000B400002010B5002939
:1059E0000AD00878002807D005487844FBF780FDE6
:1059F000002801D0002010BD0248784410BD0000EE
:105A0000DE070000D607000010B500290AD008788C
:105A1000002807D005487844FBF76AFD002801D02C
:105A2000002010BD0248784410BD0000CE070000E1
:105A3000C607000021F00042A2F16052B2F5801FBB
:105A400001F0004328BFD2F17F6C0BD95FEA001C44
:105A500043EAC20242EB507018BF704728BF20F0E3
:105A600001007047B2F5801FBCBF184670474FEA6F
:105A7000410C1CF5001F02D2084600F022BB70B595
:105A800000F05CF900000089FFF7F6BF4FF000401E
:105A9000A0F580007047000010B591EA030F48BFE1
:105AA00083F0004300F1A681841A71EB030C05D248
:105AB000121943EB0C03001B61EB0C01DFF824E12E
:105AC0004FEA1154A4EB135C1EEA430F18BF9EEA81
:105AD000445F73D023EA0E03DCF1200E21EA045167
